:100000000C942A000C948B020C94B2020C94D9022A
:100010000C9400030C9427030C944E030C9475036A
:100020000C949C030C94C3030C94EA030C941104E9
:100030000C9438040C945F040C9486040C94AD0466
:100040000C94D4040C94FB040C9422050C944905E4
:100050000C94700511241FBECFE5D8E0DEBFCDBFE4
:1000600010E0A0E6B0E0EAEDFFE102C005900D92DD
:10007000A23AB107D9F711E0A2EAB0E001C01D929F
:10008000A239B107E1F70E944D010C94EB0F0C94DB
:100090000000FC018281882321F08F3F09F04AC0D3
:1000A00027C08081813079F0813030F0823091F04A
:1000B000833009F041C015C09AB3818180958923AE
:1000C0008ABB80E0089597B381818095892387BB9F
:1000D00080E0089594B381818095892384BB80E07A
:1000E000089591B381818095892381BB80E0089533
:1000F0008081813069F0813028F0823079F083305E
:10010000E9F412C09AB38181892B8ABB80E00895FB
:1001100097B38181892B87BB80E0089594B3818157
:10012000892B84BB80E0089591B38181892B81BBA9
:1001300080E0089581E0089580E0089580E00895CA
:10014000442321F04F3F09F03FC021C0813069F0C6
:10015000813028F0823079F08330C1F512C08BB342
:10016000609568236BBB80E0089588B36095682331
:1001700068BB80E0089585B36095682365BB80E027
:10018000089582B36095682362BB80E00895813052
:1001900061F0813028F0823069F08330C9F40FC0FB
:1001A0008BB3682B6BBB80E0089588B3682B68BB6A
:1001B00080E0089585B3682B65BB80E0089582B325
:1001C000682B62BB80E0089581E0089580E0089587
:1001D00080E00895FA01813059F0813028F08230B2
:1001E00059F0833081F40CC089B3682360830BC05D
:1001F00086B36823608307C083B36823608303C02A
:1002000080B3682360838081882311F081E080833C
:100210000895813061F0813028F0823069F08330B8
:10022000A9F40FC08BB368276BBB80E0089588B337
:10023000682768BB80E0089585B3682765BB80E0C8
:10024000089582B3682762BB80E0089581E0089535
:1002500085E890E00E948A098AE79AE061E040E040
:1002600021E030E00E94DD098BE79AE061E040E0A8
:1002700024E630E00E94DD098CE690E00E94520105
:1002800082E790E00E94490017BA83E00E94970538
:1002900083E061E00E94C60508950E9428010E9443
:1002A000FA09FDCFCF93DF93EC010E9462028881AF
:1002B000813041F0813018F0823049F406C00E944C
:1002C0007B0205C00E946F0202C00E946602898103
:1002D000813051F0813018F0823089F40CC085E013
:1002E00083BF81E089BF0BC085E090E09FBD8EBDDC
:1002F00084E089BF04C087E085BD84E089BF80E0D9
:10030000DF91CF9108950F931F93813049F0813091
:1003100018F0823071F40AC083B7856083BF09C0CA
:100320008EB59FB585609FBD8EBD03C085B58760C6
:1003300085BD613001F1613018F06230D1F52AC01D
:100340008091A6009091A700A091A800B091A9006B
:100350000091A2001091A3002091A4003091A5006B
:10036000800F911FA21FB31FFA0180839183A28384
:10037000B38380E01FC08091A6009091A700A09158
:10038000A800B091A900FA0180839183A283B3836E
:1003900080E010C08091A2009091A300A091A400E1
:1003A000B091A500FA0180839183A283B38380E09A
:1003B00001C081E01F910F910895CF93C2B7609162
:1003C000B20070E080E090E02FEF30E040E050E0DD
:1003D0000E94CC0FDC01CB018C0F911DA11DB11D22
:1003E0008093B3009093B400A093B500B093B6008F
:1003F0001092B20084B7829586958695837080FFAF
:1004000030C08091B3009091B400A091B500B0913C
:10041000B6008093AE009093AF00A093B000B0936D
:10042000B1008091AE009091AF00A091B000B0916A
:10043000B1004091AA005091AB006091AC00709166
:10044000AD00841B950BA60BB70B8093A200909375
:10045000A300A093A400B093A50084B78F7B84BFB2
:100460002FC08091B3009091B400A091B500B091DD
:10047000B6008093AA009093AB00A093AC00B09319
:10048000AD008091AA009091AB00A091AC00B0911A
:10049000AD004091AE005091AF006091B0007091FE
:1004A000B100841B950BA60BB70B8093A60090930D
:1004B000A700A093A800B093A90084B7806484BF6C
:1004C000CF9108958FB780688FBF0895BA98C29A68
:1004D0008BB780628BBF84B7806484BF08958B988C
:1004E000939A8BB780688BBF85B7846085BF85B7CB
:1004F000877F85BF08958A98929A8BB780648BBF57
:1005000085B7816085BF85B78D7F85BF08958FB71B
:100510008F778FBF08951F920F920FB60F921124FD
:100520002F933F934F935F936F937F938F939F93FB
:10053000AF93BF93EF93FF93E0916C01F0916D0146
:100540000995FF91EF91BF91AF919F918F917F910D
:100550006F915F914F913F912F910F900FBE0F9030
:100560001F9018951F920F920FB60F9211242F9380
:100570003F934F935F936F937F938F939F93AF932B
:10058000BF93EF93FF93E0917401F091750109958A
:10059000FF91EF91BF91AF919F918F917F916F915B
:1005A0005F914F913F912F910F900FBE0F901F9031
:1005B00018951F920F920FB60F9211242F933F930D
:1005C0004F935F936F937F938F939F93AF93BF935B
:1005D000EF93FF93E0917000F09171000995FF9106
:1005E000EF91BF91AF919F918F917F916F915F91AB
:1005F0004F913F912F910F900FBE0F901F90189524
:100600001F920F920FB60F9211242F933F934F9387
:100610005F936F937F938F939F93AF93BF93EF936A
:10062000FF93E0917A01F0917B010995FF91EF91A1
:10063000BF91AF919F918F917F916F915F914F91FA
:100640003F912F910F900FBE0F901F9018951F9202
:100650000F920FB60F9211242F933F934F935F93F6
:100660006F937F938F939F93AF93BF93EF93FF937A
:10067000E0915C01F0915D010995FF91EF91BF91CF
:10068000AF919F918F917F916F915F914F913F912A
:100690002F910F900FBE0F901F9018951F920F92E1
:1006A0000FB60F9211242F933F934F935F936F9345
:1006B0007F938F939F93AF93BF93EF93FF93E091BB
:1006C0007601F09177010995FF91EF91BF91AF917C
:1006D0009F918F917F916F915F914F913F912F915A
:1006E0000F900FBE0F901F9018951F920F920FB68C
:1006F0000F9211242F933F934F935F936F937F93A8
:100700008F939F93AF93BF93EF93FF93E091620119
:10071000F09163010995FF91EF91BF91AF919F9186
:100720008F917F916F915F914F913F912F910F909A
:100730000FBE0F901F9018951F920F920FB60F9239
:1007400011242F933F934F935F936F937F938F93D6
:100750009F93AF93BF93EF93FF93E0916001F0916C
:1007600061010995FF91EF91BF91AF919F918F9199
:100770007F916F915F914F913F912F910F900FBE9D
:100780000F901F9018951F920F920FB60F92112481
:100790002F933F934F935F936F937F938F939F9389
:1007A000AF93BF93EF93FF93E0917801F0917901BC
:1007B0000995FF91EF91BF91AF919F918F917F919B
:1007C0006F915F914F913F912F910F900FBE0F90BE
:1007D0001F9018951F920F920FB60F9211242F930E
:1007E0003F934F935F936F937F938F939F93AF93B9
:1007F000BF93EF93FF93E0917001F0917101099520
:10080000FF91EF91BF91AF919F918F917F916F91E8
:100810005F914F913F912F910F900FBE0F901F90BE
:1008200018951F920F920FB60F9211242F933F939A
:100830004F935F936F937F938F939F93AF93BF93E8
:10084000EF93FF93E0916E00F0916F000995FF9197
:10085000EF91BF91AF919F918F917F916F915F9138
:100860004F913F912F910F900FBE0F901F901895B1
:100870001F920F920FB60F9211242F933F934F9315
:100880005F936F937F938F939F93AF93BF93EF93F8
:10089000FF93E0916401F09165010995FF91EF915B
:1008A000BF91AF919F918F917F916F915F914F9188
:1008B0003F912F910F900FBE0F901F9018951F9290
:1008C0000F920FB60F9211242F933F934F935F9384
:1008D0006F937F938F939F93AF93BF93EF93FF9308
:1008E000E0915A01F0915B010995FF91EF91BF9161
:1008F000AF919F918F917F916F915F914F913F91B8
:100900002F910F900FBE0F901F9018951F920F926E
:100910000FB60F9211242F933F934F935F936F93D2
:100920007F938F939F93AF93BF93EF93FF93E09148
:100930007201F09173010995FF91EF91BF91AF9111
:100940009F918F917F916F915F914F913F912F91E7
:100950000F900FBE0F901F9018951F920F920FB619
:100960000F9211242F933F934F935F936F937F9335
:100970008F939F93AF93BF93EF93FF93E0916E019B
:10098000F0916F010995FF91EF91BF91AF919F9108
:100990008F917F916F915F914F913F912F910F9028
:1009A0000FBE0F901F9018951F920F920FB60F92C7
:1009B00011242F933F934F935F936F937F938F9364
:1009C0009F93AF93BF93EF93FF93E0916801F091F2
:1009D00069010995FF91EF91BF91AF919F918F911F
:1009E0007F916F915F914F913F912F910F900FBE2B
:1009F0000F901F9018951F920F920FB60F9211240F
:100A00002F933F934F935F936F937F938F939F9316
:100A1000AF93BF93EF93FF93E0916A01F0916B0165
:100A20000995FF91EF91BF91AF919F918F917F9128
:100A30006F915F914F913F912F910F900FBE0F904B
:100A40001F9018951F920F920FB60F9211242F939B
:100A50003F934F935F936F937F938F939F93AF9346
:100A6000BF93EF93FF93E0916601F09167010995C1
:100A7000FF91EF91BF91AF919F918F917F916F9176
:100A80005F914F913F912F910F900FBE0F901F904C
:100A900018951F920F920FB60F9211242F933F9328
:100AA0004F935F936F937F938F939F93AF93BF9376
:100AB000EF93FF93E0915801F09159010995FF914F
:100AC000EF91BF91AF919F918F917F916F915F91C6
:100AD0004F913F912F910F900FBE0F901F9018953F
:100AE0001F920F920FB60F9211242F933F934F93A3
:100AF0005F936F937F938F939F93AF93BF93EF9386
:100B0000FF93E0915E01F0915F010995FF91EF91F4
:100B1000BF91AF919F918F917F916F915F914F9115
:100B20003F912F910F900FBE0F901F90189582301C
:100B300079F08330C9F0813039F58093B70083E8CC
:100B400090E00E94760788E790E00E9449000895AF
:100B500082E08093B70081E890E00E94760785E705
:100B600090E00E944900089583E08093B70083E8F5
:100B700090E00E94760781E890E00E94760782E785
:100B800090E00E944900089581E00895823079F153
:100B9000833009F455C0813009F099C0613031F0DB
:100BA0006130D0F0623009F094C00BC083E064E0A3
:100BB0004FEF0E94A00083E068E040E00E94A000A8
:100BC000089583E068E04FEF0E94A00083E064E0B6
:100BD00040E00E94A000089583E064E040E00E94AD
:100BE000A00083E068E040E00E94A000089561302A
:100BF00031F06130D0F0623009F06DC00BC083E09D
:100C000061E04FEF0E94A00083E062E040E00E94BC
:100C1000A000089583E062E04FEF0E94A00083E00F
:100C200061E040E00E94A000089583E062E040E0BF
:100C30000E94A00083E061E040E00E94A0000895CF
:100C4000613031F0613070F1623009F046C015C09A
:100C500083E064E04FEF0E94A00083E068E040E0A2
:100C60000E94A00083E062E040E00E94A00083E0D8
:100C700061E04FEF0E94A000089583E064E040E04F
:100C80000E94A00083E068E04FEF0E94A00083E094
:100C900062E04FEF0E94A00083E061E040E00E942C
:100CA000A000089583E064E040E00E94A00083E09B
:100CB00062E040E00E94A00083E068E040E00E9423
:100CC000A00083E061E040E00E94A000089580E081
:100CD000089580E0089580E0089581E008958230CD
:100CE00069F08330A9F08130F1F48093B8002CE8EA
:100CF0003AE740E050E00E94A007089582E0809328
:100D0000B8002CE83AE740E050E00E94A0070895C0
:100D100083E08093B80082E02CE83AE740E050E0BE
:100D20000E94A007089581E00895823079F0833011
:100D3000C1F0813011F58091B700813001F52EE1CD
:100D400030E040E050E00E94A00708958091B70095
:100D50008230B9F42EE130E040E050E00E94A0077C
:100D600008958091B700833071F482E02EE130E085
:100D700040E050E00E94A007089581E0089581E0DE
:100D8000089581E0089581E00895813019F082305E
:100D900049F404C081E00E947109089582E00E9434
:100DA0007109089581E008959091B700981721F492
:100DB00081E0FB0180830895FB011082089581305A
:100DC000C1F0813018F08230D1F526C081E061E0B9
:100DD00049EB50E00E94EA008091B900813081F532
:100DE0009091BC009F5F9093BC00953670F580E0B9
:100DF000089581E062E04AEB50E00E94EA008091B1
:100E0000BA008130F9F49091BC009F5F9093BC00D0
:100E10009333D8F480E0089580E064E04BEB50E039
:100E20000E94EA008091BB00813071F49091BD0076
:100E30009F5F9093BD00953140F480E00895089540
:100E400080E0089580E0089580E008954091BF001B
:100E500050E040545F4F81E061E00E94EA00882347
:100E600081F080917B00882341F4809124018F5F81
:100E70008093240181E080937B00109225011092E1
:100E80007C004091BF0050E040545F4F81E061E042
:100E90000E94EA008823E9F480912401843118F447
:100EA000109226010DC0982F95519D3120F481E0BC
:100EB0008093260105C0833318F083E080932601D8
:100EC00010927B00809125018F5F80932501109205
:100ED00024018091BF00853620F48F5F8093BF008E
:100EE00002C01092BF00809126010895FC0180810C
:100EF000813061F0813028F0823081F08330D9F484
:100F000015C083B7886683BF80E016C08EB59FB5D5
:100F10008062916A9FBD8EBD80E00EC08EB59FB588
:100F20008062916A9FBD8EBD80E006C085B58866EF
:100F300085BD80E001C081E09181909327010895F3
:100F4000CF92DF92EF92FF920F931F9389019A0144
:100F50000F2EFEEACF2EF0EFDF2EFFEFEF2EFFEF8A
:100F6000FF2EF02DC00ED11EE21EF31E9BE3C9160C
:100F70009BE6D90690E0E90690E0F90618F4109295
:100F80002701A2C00F2EFBE2CF2EFCEFDF2EFFEFDA
:100F9000EF2EFFEFFF2EF02DC00ED11EE21EF31E2E
:100FA0009DE7C9169BE0D90690E0E90690E0F906B6
:100FB00020F491E090932701A5C00F2EF5E1CF2EEC
:100FC000FEEFDF2EFFEFEF2EFFEFFF2EF02DC00E16
:100FD000D11EE21EF31E9AEEC91691E0D90690E0EA
:100FE000E90690E0F90620F492E090932701A1C071
:100FF0000F2EFAE0CF2EFFEFDF2EFFEFEF2EFFEFE9
:10100000FF2EF02DC00ED11EE21EF31E95EFC91665
:10101000D104E104F10420F493E09093270190C0FF
:101020000F2EF5E8CF2EFFEFDF2EFFEFEF2EFFEFB5
:10103000FF2EF02DC00ED11EE21EF31E9BE7C91637
:10104000D104E104F10420F494E090932701A5C0B9
:101050000F2EF0EECF2EFFEFDF2EFFEFEF2EFFEF84
:10106000FF2EF02DC00ED11EE21EF31E9BE5C91609
:10107000D104E104F10420F495E09093270177C0B6
:1010800001501040204030400F311105210531053D
:1010900020F496E09093270186C090912701933029
:1010A00009F44EC0943030F4913061F1923008F080
:1010B00040C00AC0953009F45AC0953008F46DC09C
:1010C000963009F08DC06FC0813061F0813030F012
:1010D000823071F0833009F083C010C083B7816023
:1010E00083BF88C08EB59FB581609FBD8EBD98C0FF
:1010F0008EB59FB581609FBD8EBDADC085B5816049
:1011000085BDC4C0833018F4813048F404C08330F6
:1011100009F066C00AC083B7826083BF6BC02EB57A
:101120003FB522603FBD2EBD5BC085B5826085BDE9
:10113000ADC0833009F054C085B5836085BDA6C0BD
:10114000833018F4813048F404C0833009F048C07B
:101150000AC083B7836083BF4DC02EB53FB52360FF
:101160003FBD2EBD3DC085B5846085BD8FC0833039
:1011700018F4813040F403C0833091F50AC083B77E
:10118000836083BF37C02EB53FB523603FBD2EBD02
:1011900027C085B5846085BD79C0833009F585B5E4
:1011A000856085BD73C0813059F0813028F0823070
:1011B00069F08330A9F410C083B7856083BF1AC07B
:1011C0008EB59FB581609FBD8EBD2AC08EB59FB57F
:1011D00085609FBD8EBD3FC085B5876085BD56C00B
:1011E0008130F1F0813030F08230A9F1833009F0A4
:1011F00063C04CC070E080E090E00E94DB0E20E015
:1012000030E048EC52E40E94470E20E030E04FE727
:1012100053E40E94690F0E94AF0E6CBF80E04DC086
:1012200070E080E090E00E94DB0E20E030E048ECCF
:1012300052E40E94470E20E030E04FE753E40E9462
:10124000690F0E94AF0EDC01CB019BBD8ABD99BD29
:1012500088BD80E032C070E080E090E00E94DB0E4C
:1012600020E030E048EC52E40E94470E20E030E0FD
:101270004FE753E40E94690F0E94AF0EDC01CB01DF
:101280009BBD8ABD99BD88BD80E017C070E080E03D
:1012900090E00E94DB0E20E030E048EC52E40E9437
:1012A000470E20E030E04FE753E40E94690F0E94B0
:1012B000AF0E63BD80E001C081E091E09093280112
:1012C0001F910F91FF90EF90DF90CF900895909134
:1012D0002801913021F40E94A00780E0089581E068
:1012E0000895833018F4813048F403C0833081F4CA
:1012F0000AC083B7887F83BF80E0089583B7887F63
:1013000083BF80E0089585B5887F85BD80E008951E
:1013100081E008950F931F93CF93DF93EC01098130
:1013200080912B018F5F80932B01209711F010E0AB
:1013300001C01AE2002319F0023079F407C00E94BC
:10134000620283E990E00E94900C08C00E94620251
:1013500089E990E00E94900C01C01F5F8881813074
:1013600099F4002319F0023069F406C080E06AEFB6
:1013700070E00E94F60A09C082E06EE070E00E9410
:10138000F60A03C01F5F01C01F5F812FDF91CF915D
:101390001F910F91089580912B01813041F487E8CE
:1013A00090E00E94900C10922B0180E00895823012
:1013B00010F086E0089581E0089550912B0151309E
:1013C00099F4E42FF0E0EE0FFF1FEE0FFF1FEE0F7A
:1013D000FF1FE258FE4F918380836583348323830C
:1013E00081E0828380E00895523010F086E0089515
:1013F00084E00895CF93DF9380912901813009F033
:1014000065C01092290110922A0120E0CEE7D1E0B8
:1014100030E0F901EE0FFF1FEE0FFF1FEE0FFF1F71
:10142000EC0FFD1F8281882309F448C0F901EE0FFB
:10143000FF1FEE0FFF1FEE0FFF1FEC0FFD1F86813A
:101440009781AC014F5F5F4F5783468383819481BF
:1014500048175907D1F4F901EE0FFF1FEE0FFF1FD8
:10146000EE0FFF1FEC0FFD1F0190F081E02D09959D
:10147000E0912A01F0E0EE0FFF1FEE0FFF1FEE0FCD
:10148000FF1FEC0FFD1F1782168280912A0190E04A
:10149000FC01EE0FFF1FEE0FFF1FEE0FFF1FEC0F03
:1014A000FD1F2581222351F4FC01EE0FFF1FEE0FDB
:1014B000FF1FEE0FFF1FEC0FFD1F128220912A016C
:1014C0002F5F20932A01223008F4A2CF80E0DF9121
:1014D000CF910895E82FF0E0EE0FFF1FEE0FFF1FF2
:1014E000EE0FFF1FE258FE4F1282089581E08093B5
:1014F00029010895089540912D01493058F550E093
:10150000440F551F440F551F425D5E4F80E060E061
:101510000E94830140912D0150E0440F551F440F5C
:10152000551F4E5C5E4F80E061E00E948301409158
:101530002D0150E0440F551F440F551F4A5C5E4F6C
:1015400080E062E00E94830180912D018D5F809395
:101550002D0102C010922D0180912E0190912F013A
:10156000A0913001B09131010A97A109B1098F3BD7
:101570009105A105B105B8F4809132019091330134
:10158000A0913401B09135018A309105A105B105D2
:1015900050F0893C9105A105B10528F483E08093C2
:1015A00052018FEF85BB80915201833021F481E09D
:1015B00062E30E946F060895813051F0813018F087
:1015C000823091F40CC083B7887F83BF80E0089598
:1015D0008EB59FB5887F9FBD8EBD80E0089585B58F
:1015E000887F85BD80E0089586E30895CF93DF93DB
:1015F000EB01813009F47CC0813020F0823009F0A9
:1016000069C1ECC080915501813009F06CC08091B6
:101610005401843091F1853030F4813051F08230C2
:1016200009F05AC118C08630D1F1873009F054C191
:1016300048C06F3F710508F051C18091530181305E
:1016400031F480E00E94DC0A83B7816083BFC095DB
:10165000C2BF80E062C16F3F710508F041C1809157
:101660005301813031F480E00E94DC0A83B782604C
:1016700083BFC095C2BF80E050C16F3F710508F0C5
:1016800031C180915301813031F480E00E94DC0A45
:1016900083B7836083BFC095C2BF80E03EC16F3F08
:1016A000710508F021C180915301813031F480E04F
:1016B0000E94DC0A83B7846083BFC095C2BF80E00C
:1016C0002CC16F3F710508F011C180915301813029
:1016D00031F480E00E94DC0A83B7856083BFC09547
:1016E000C2BF80E01AC1823008F402C184E215C191
:1016F00080915601813009F06CC080915401843092
:1017000091F1853030F4813051F0823009F0F2C02F
:1017100018C08630D1F1873009F0ECC048C0809104
:101720005301813039F40E94DC0A8EB59FB5816087
:101730009FBD8EBDD095C195DF4FDDBDCCBD80E096
:10174000ECC080915301813039F40E94DC0A8EB5DF
:101750009FB582609FBD8EBDD095C195DF4FDDBD29
:10176000CCBD80E0DAC080915301813039F40E9411
:10177000DC0A8EB59FB583609FBD8EBDD095C195A7
:10178000DF4FDDBDCCBD80E0C8C08091530181300A
:1017900039F40E94DC0A8EB59FB584609FBD8EBD72
:1017A000D095C195DF4FDDBDCCBD80E0B6C0809146
:1017B0005301813039F40E94DC0A8EB59FB58560F3
:1017C0009FBD8EBDD095C195DF4FDDBDCCBD80E006
:1017D000A4C0823008F490C084E29FC08091570179
:1017E000813009F073C0809154018430C9F1853093
:1017F00040F48230E9F0833048F5813009F07EC052
:1018000009C0863009F448C08630C0F1873009F03D
:1018100075C04FC06F3F710508F072C082E00E9432
:10182000DC0A85B5816085BDC095C4BD80E075C00A
:101830006F3F710508F066C082E00E94DC0A85B542
:10184000826085BDC095C4BD80E067C082E00E9413
:10185000DC0A85B5836085BDC095C4BD80E05DC0F0
:101860006F3F710508F050C082E00E94DC0A85B528
:10187000846085BDC095C4BD80E04FC06F3F7105D9
:1018800008F044C082E00E94DC0A85B5856085BD11
:10189000C095C4BD80E041C06F3F7105C8F582E0CE
:1018A0000E94DC0A85B5866085BDC095C4BD80E018
:1018B00034C06F3F710570F582E00E94DC0A85B587
:1018C000876085BDC095C4BD80E027C0823020F10F
:1018D00084E223C086E321C080E01FC080E01DC0F9
:1018E00080E01BC080E019C080E017C080E015C018
:1018F00082E213C080E011C082E20FC080E00DC020
:1019000080E00BC080E009C080E007C080E005C037
:1019100080E003C080E001C082E2DF91CF910895B2
:101920001F93CF93DF93EC01009709F413C19981C2
:10193000992321F481E08093530102C01092530156
:101940008B81809354018881813009F45BC08130A0
:1019500020F0823009F000C1AFC0809155018F5F47
:101960008093550183B783BF89818130C9F081306D
:1019700020F0823009F0F2C02CC08A81882321F047
:10198000813009F0EDC005C089B78C7F89BF10E0B8
:10199000FAC00E94620289B7816089BF10E0F3C07B
:1019A00080E00E94DC0A83B78D6083BF8A81882330
:1019B00021F0813009F0D6C005C089B78C7F89BF7E
:1019C00010E0E1C00E94620289B7816089BF10E027
:1019D000DAC080E00E94DC0A83B78C6083BF8A8112
:1019E000882321F0813009F0BFC005C089B78C7F02
:1019F00089BF10E0C8C00E94620289B7816089BFB8
:101A000010E0C1C0809156018F5F809356019130E4
:101A1000E9F0913020F0923009F0A8C032C08EB5C4
:101A20009FB59FBD8EBD8A81882321F0813009F04A
:101A30009FC005C089B7837C89BF10E0A4C00E9405
:101A4000620289B7846089BF10E09DC081E00E9476
:101A5000DC0A8EB59FB587609FBD8EBD8A818823C5
:101A600021F0813009F086C005C089B7837C89BF29
:101A700010E089C00E94620289B7846089BF10E0CB
:101A800082C081E00E94DC0A8EB59FB586609FBD52
:101A90008EBD8A81882321F0813009F06DC005C098
:101AA00089B7837C89BF10E06EC00E94620289B74B
:101AB000846089BF10E067C0809157018F5F809379
:101AC000570185B585BD89818130C9F0813020F00D
:101AD000823009F053C028C08A81882321F08130E8
:101AE00009F04EC005C089B78F7389BF10E04BC0A5
:101AF0000E94620289B7806C89BF10E044C082B541
:101B0000886082BD8A81882319F0813079F405C00C
:101B100089B78F7389BF10E00AC00E94620289B73B
:101B2000806C89BF10E003C010E001C010E382B5F3
:101B3000886082BD8A81882319F0813019F504C03C
:101B400089B78F7389BF1FC00E94620289B7806CFA
:101B500089BF19C010E217C010E015C010E013C013
:101B600010E011C010E00FC010E00DC014E30BC076
:101B700010E309C010E307C010E305C016E303C07B
:101B800010E301C010E3812FDF91CF911F910895E1
:101B900061157105F9F0813059F0813018F082300B
:101BA000D9F40EC088B78170FB01808380E008956E
:101BB00088B7869586958170FB01808380E00895C3
:101BC00088B782958695869583708170FB018083A6
:101BD00080E0089580E2089586E308956115710517
:101BE000D1F0813059F0813018F08230B1F40DC05D
:101BF00082B7FB018083118280E008958CB59DB58A
:101C0000FB019183808380E0089584B5FB0180838C
:101C1000118280E0089580E2089586E308958FE9B7
:101C200090E00E9449008CE690E00E9452010895E5
:101C300082E090E060E170E04FEF50E00E94A00091
:101C400082E090E060E170E040E050E00E94A0009F
:101C500008950F931F93CF93DF9300D000D0CDB79B
:101C6000DEB78C0182E061E0AE014F5F5F4F0E9402
:101C7000830129813A81F801318320830F900F90ED
:101C80000F900F90DF91CF911F910F9108950CD07D
:101C9000E6C0DED040F0D5D030F021F45F3F19F03F
:101CA000C7C0511110C1CAC0EBD098F39923C9F332
:101CB0005523B1F3951B550BBB27AA276217730752
:101CC000840738F09F5F5F4F220F331F441FAA1F06
:101CD000A9F333D00E2E3AF0E0E830D091505040C6
:101CE000E695001CCAF729D0FE2F27D0660F771F74
:101CF000881FBB1F261737074807AB07B0E809F056
:101D0000BB0B802DBF01FF2793585F4F2AF09E3FEA
:101D1000510568F08DC0D7C05F3FECF3983EDCF30F
:101D2000869577956795B795F7959F5FC9F7880F63
:101D3000911D9695879597F90895E1E0660F771FB5
:101D4000881FBB1F621773078407BA0720F0621B46
:101D5000730B840BBA0BEE1F88F7E095089598D0AB
:101D600088F09F5790F0B92F9927B751A0F0D1F084
:101D7000660F771F881F991F1AF0BA95C9F712C00E
:101D8000B13081F09FD0B1E008959CC0672F782FCB
:101D90008827B85F39F0B93FCCF38695779567957A
:101DA000B395D9F73EF490958095709561957F4FE6
:101DB0008F4F9F4F0895E89409C097FB3EF490958C
:101DC0008095709561957F4F8F4F9F4F9923A9F014
:101DD000F92F96E9BB279395F695879577956795A3
:101DE000B795F111F8CFFAF4BB0F11F460FF1BC0E7
:101DF0006F5F7F4F8F4F9F4F16C0882311F096E97A
:101E000011C0772321F09EE8872F762F05C0662327
:101E100071F096E8862F70E060E02AF09A95660FE0
:101E2000771F881FDAF7880F9695879597F9089599
:101E300097F99F6780E870E060E008959FEF80EC7D
:101E4000089500240A941616170618060906089520
:101E500000240A9412161306140605060895092E86
:101E60000394000C11F4882352F0BB0F40F4BF2BF5
:101E700011F460FF04C06F5F7F4F8F4F9F4F089535
:101E800057FD9058440F551F59F05F3F71F047952B
:101E9000880F97FB991F61F09F3F79F08795089510
:101EA000121613061406551FF2CF4695F1DF08C02F
:101EB000161617061806991FF1CF8695710561054C
:101EC00008940895E894BB2766277727CB0197F9F4
:101ED00008950BD0C4CFB5DF28F0BADF18F09523F2
:101EE00009F0A6CFABCF1124EECFCADFA0F3959FA8
:101EF000D1F3950F50E0551F629FF001729FBB27F1
:101F0000F00DB11D639FAA27F00DB11DAA1F649F9C
:101F10006627B00DA11D661F829F2227B00DA11D4F
:101F2000621F739FB00DA11D621F839FA00D611DD5
:101F3000221F749F3327A00D611D231F849F600DF6
:101F4000211D822F762F6A2F11249F5750408AF02F
:101F5000E1F088234AF0EE0FFF1FBB1F661F771FBB
:101F6000881F91505040A9F79E3F510570F060CFF7
:101F7000AACF5F3FECF3983EDCF3869577956795A3
:101F8000B795F795E7959F5FC1F7FE2B880F911DD9
:101F90009695879597F90895629FD001739FF001F8
:101FA000829FE00DF11D649FE00DF11D929FF00DE9
:101FB000839FF00D749FF00D659FF00D9927729F20
:101FC000B00DE11DF91F639FB00DE11DF91FBD01AB
:0A1FD000CF0111240895F894FFCF0B
:101FDA00031CFF02F0FF01F0FF00F0FF0200760A87
:101FEA00DD01033FFF03E0FF031CFF0101030600BD
:101FFA0006020601060100000001000000010000BF
:10200A0007000000000107760A020001070000022B
:02201A0010FFB5
:040000050080018EE8
:00000001FF
