:100000000C942A000C9452010C9479010C94A001D8
:100010000C94C7010C94EE010C9415020C943C0254
:100020000C9463020C948A020C94B1020C94D802D2
:100030000C94FF020C9426030C944D030C9474034F
:100040000C949B030C94C2030C94E9030C941004CD
:100050000C94370411241FBECFE5D8E0DEBFCDBF1E
:1000600010E0A0E6B0E0E0E1F3E102C005900D92FF
:10007000AE37B107D9F710E0AEE7B0E001C01D928E
:10008000A03BB107E1F70E9428010C9486090C946B
:100090000000FC018281882321F08F3F09F04AC0D3
:1000A00027C08081813079F0813030F0823091F04A
:1000B000833009F041C015C09AB3818180958923AE
:1000C0008ABB80E0089597B381818095892387BB9F
:1000D00080E0089594B381818095892384BB80E07A
:1000E000089591B381818095892381BB80E0089533
:1000F0008081813069F0813028F0823079F083305E
:10010000E9F412C09AB38181892B8ABB80E00895FB
:1001100097B38181892B87BB80E0089594B3818157
:10012000892B84BB80E0089591B38181892B81BBA9
:1001300080E0089581E0089580E0089580E00895CA
:10014000442321F04F3F09F03FC021C0813069F0C6
:10015000813028F0823079F08330C1F512C08BB342
:10016000609568236BBB80E0089588B36095682331
:1001700068BB80E0089585B36095682365BB80E027
:10018000089582B36095682362BB80E00895813052
:1001900061F0813028F0823069F08330C9F40FC0FB
:1001A0008BB3682B6BBB80E0089588B3682B68BB6A
:1001B00080E0089585B3682B65BB80E0089582B325
:1001C000682B62BB80E0089581E0089580E0089587
:1001D00080E00895FA01813059F0813028F08230B2
:1001E00059F0833081F40CC089B3682360830BC05D
:1001F00086B36823608307C083B36823608303C02A
:1002000080B3682360838081882311F081E080833C
:100210000895813061F0813028F0823069F08330B8
:10022000A9F40FC08BB368276BBB80E0089588B337
:10023000682768BB80E0089585B3682765BB80E0C8
:10024000089582B3682762BB80E0089581E0089535
:10025000FFCF8FB780688FBF0895BA98C29A8BB7C7
:1002600080628BBF84B7806484BF08958B98939A13
:100270008BB780688BBF85B7846085BF85B7877F64
:1002800085BF08958A98929A8BB780648BBF85B793
:10029000816085BF85B78D7F85BF08958FB78F77C4
:1002A0008FBF08951F920F920FB60F9211242F93B4
:1002B0003F934F935F936F937F938F939F93AF93EE
:1002C000BF93EF93FF93E091A000F091A1000995F7
:1002D000FF91EF91BF91AF919F918F917F916F911E
:1002E0005F914F913F912F910F900FBE0F901F90F4
:1002F00018951F920F920FB60F9211242F933F93D0
:100300004F935F936F937F938F939F93AF93BF931D
:10031000EF93FF93E091A800F091A9000995FF9158
:10032000EF91BF91AF919F918F917F916F915F916D
:100330004F913F912F910F900FBE0F901F901895E6
:100340001F920F920FB60F9211242F933F934F934A
:100350005F936F937F938F939F93AF93BF93EF932D
:10036000FF93E0919600F09197000995FF91EF912E
:10037000BF91AF919F918F917F916F915F914F91BD
:100380003F912F910F900FBE0F901F9018951F92C5
:100390000F920FB60F9211242F933F934F935F93B9
:1003A0006F937F938F939F93AF93BF93EF93FF933D
:1003B000E091AE00F091AF000995FF91EF91BF91F0
:1003C000AF919F918F917F916F915F914F913F91ED
:1003D0002F910F900FBE0F901F9018951F920F92A4
:1003E0000FB60F9211242F933F934F935F936F9308
:1003F0007F938F939F93AF93BF93EF93FF93E0917E
:100400008C00F0918D000995FF91EF91BF91AF9114
:100410009F918F917F916F915F914F913F912F911C
:100420000F900FBE0F901F9018951F920F920FB64E
:100430000F9211242F933F934F935F936F937F936A
:100440008F939F93AF93BF93EF93FF93E091AA0095
:10045000F091AB000995FF91EF91BF91AF919F9102
:100460008F917F916F915F914F913F912F910F905D
:100470000FBE0F901F9018951F920F920FB60F92FC
:1004800011242F933F934F935F936F937F938F9399
:100490009F93AF93BF93EF93FF93E0919200F091FE
:1004A00093000995FF91EF91BF91AF919F918F912B
:1004B0007F916F915F914F913F912F910F900FBE60
:1004C0000F901F9018951F920F920FB60F92112444
:1004D0002F933F934F935F936F937F938F939F934C
:1004E000AF93BF93EF93FF93E0919000F091910051
:1004F0000995FF91EF91BF91AF919F918F917F915E
:100500006F915F914F913F912F910F900FBE0F9080
:100510001F9018951F920F920FB60F9211242F93D0
:100520003F934F935F936F937F938F939F93AF937B
:10053000BF93EF93FF93E091AC00F091AD0009956C
:10054000FF91EF91BF91AF919F918F917F916F91AB
:100550005F914F913F912F910F900FBE0F901F9081
:1005600018951F920F920FB60F9211242F933F935D
:100570004F935F936F937F938F939F93AF93BF93AB
:10058000EF93FF93E091A400F091A5000995FF91EE
:10059000EF91BF91AF919F918F917F916F915F91FB
:1005A0004F913F912F910F900FBE0F901F90189574
:1005B0001F920F920FB60F9211242F933F934F93D8
:1005C0005F936F937F938F939F93AF93BF93EF93BB
:1005D000FF93E0919800F09199000995FF91EF91B8
:1005E000BF91AF919F918F917F916F915F914F914B
:1005F0003F912F910F900FBE0F901F9018951F9253
:100600000F920FB60F9211242F933F934F935F9346
:100610006F937F938F939F93AF93BF93EF93FF93CA
:10062000E0919400F09195000995FF91EF91BF91B1
:10063000AF919F918F917F916F915F914F913F917A
:100640002F910F900FBE0F901F9018951F920F9231
:100650000FB60F9211242F933F934F935F936F9395
:100660007F938F939F93AF93BF93EF93FF93E0910B
:100670008A00F0918B000995FF91EF91BF91AF91A6
:100680009F918F917F916F915F914F913F912F91AA
:100690000F900FBE0F901F9018951F920F920FB6DC
:1006A0000F9211242F933F934F935F936F937F93F8
:1006B0008F939F93AF93BF93EF93FF93E091A60027
:1006C000F091A7000995FF91EF91BF91AF919F9194
:1006D0008F917F916F915F914F913F912F910F90EB
:1006E0000FBE0F901F9018951F920F920FB60F928A
:1006F00011242F933F934F935F936F937F938F9327
:100700009F93AF93BF93EF93FF93E091A200F0917B
:10071000A3000995FF91EF91BF91AF919F918F91A8
:100720007F916F915F914F913F912F910F900FBEED
:100730000F901F9018951F920F920FB60F921124D1
:100740002F933F934F935F936F937F938F939F93D9
:10075000AF93BF93EF93FF93E0919C00F0919D00C6
:100760000995FF91EF91BF91AF919F918F917F91EB
:100770006F915F914F913F912F910F900FBE0F900E
:100780001F9018951F920F920FB60F9211242F935E
:100790003F934F935F936F937F938F939F93AF9309
:1007A000BF93EF93FF93E0919E00F0919F00099516
:1007B000FF91EF91BF91AF919F918F917F916F9139
:1007C0005F914F913F912F910F900FBE0F901F900F
:1007D00018951F920F920FB60F9211242F933F93EB
:1007E0004F935F936F937F938F939F93AF93BF9339
:1007F000EF93FF93E0919A00F0919B000995FF9190
:10080000EF91BF91AF919F918F917F916F915F9188
:100810004F913F912F910F900FBE0F901F90189501
:100820001F920F920FB60F9211242F933F934F9365
:100830005F936F937F938F939F93AF93BF93EF9348
:10084000FF93E0918800F09189000995FF91EF9165
:10085000BF91AF919F918F917F916F915F914F91D8
:100860003F912F910F900FBE0F901F9018951F92E0
:100870000F920FB60F9211242F933F934F935F93D4
:100880006F937F938F939F93AF93BF93EF93FF9358
:10089000E0918E00F0918F000995FF91EF91BF914B
:1008A000AF919F918F917F916F915F914F913F9108
:1008B0002F910F900FBE0F901F901895823079F0F6
:1008C0008330C9F0813039F580937E008BE790E06A
:1008D0000E94ED0582E790E00E944900089582E0C1
:1008E00080937E0089E790E00E94ED058FE690E01E
:1008F0000E944900089583E080937E008BE790E09A
:100900000E94ED0589E790E00E94ED058CE690E0FD
:100910000E944900089581E00895823079F1833082
:1009200009F455C0813009F099C0613031F061306F
:10093000D0F0623009F094C00BC083E064E04FEF68
:100940000E94A00083E068E040E00E94A0000895BB
:1009500083E068E04FEF0E94A00083E064E040E0A5
:100960000E94A000089583E064E040E00E94A0009F
:1009700083E068E040E00E94A0000895613031F01B
:100980006130D0F0623009F06DC00BC083E060E8E8
:100990004FEF0E94A00083E060E440E00E94A000CE
:1009A000089583E060E44FEF0E94A00083E060E8D8
:1009B00040E00E94A000089583E060E440E00E94CF
:1009C000A00083E060E840E00E94A000089561304C
:1009D00031F0613070F1623009F046C015C083E03B
:1009E00064E04FEF0E94A00083E068E040E00E94D6
:1009F000A00083E060E440E00E94A00083E060E8A3
:100A00004FEF0E94A000089583E064E040E00E9460
:100A1000A00083E068E04FEF0E94A00083E060E464
:100A20004FEF0E94A00083E060E840E00E94A00039
:100A3000089583E064E040E00E94A00083E060E469
:100A400040E00E94A00083E068E040E00E94A00037
:100A500083E060E840E00E94A000089580E00895EF
:100A600080E0089580E0089581E00895823069F083
:100A70008330A9F08130F1F480937F002EE130E0E3
:100A800040E050E00E941706089582E080937F00C6
:100A90002EE130E040E050E00E941706089583E028
:100AA00080937F0082E02EE130E040E050E00E9441
:100AB0001706089581E00895823079F08330C1F0FF
:100AC000813011F580917E00813001F52EE130E01A
:100AD00040E050E00E941706089580917E00823029
:100AE000B9F42EE130E040E050E00E94170608958E
:100AF00080917E00833071F482E02EE130E040E0AE
:100B000050E00E941706089581E0089581E008955D
:100B100081E0089581E00895813019F0823049F430
:100B200004C081E00E94E807089582E00E94E8077F
:100B3000089581E0089590917E00981721F481E056
:100B4000FB0180830895FB01108208958130C1F07C
:100B5000813018F08230D1F526C082E060E140E8B3
:100B600050E00E94EA0080918000813081F59091F0
:100B700083009F5F90938300933370F580E0089526
:100B800081E064E041E850E00E94EA008091810049
:100B90008130F9F4909183009F5F909383009333A9
:100BA000D8F480E0089580E064E042E850E00E94DC
:100BB000EA0080918200813071F4909184009F5FFF
:100BC00090938400953140F480E00895089580E08A
:100BD000089580E0089580E00895FC0180818130CF
:100BE00061F0813028F0823081F08330D9F415C073
:100BF00083B7886683BF80E016C08EB59FB58062DC
:100C0000916A9FBD8EBD80E00EC08EB59FB580629B
:100C1000916A9FBD8EBD80E006C085B5886685BDA2
:100C200080E001C081E09181909386000895CF9289
:100C3000DF92EF92FF920F931F9389019A010F2E7B
:100C4000FEEACF2EF0EFDF2EFFEFEF2EFFEFFF2EAD
:100C5000F02DC00ED11EE21EF31E9BE3C9169BE6CB
:100C6000D90690E0E90690E0F90618F410928600A3
:100C7000A2C00F2EFBE2CF2EFCEFDF2EFFEFEF2EF8
:100C8000FFEFFF2EF02DC00ED11EE21EF31E9DE7DA
:100C9000C9169BE0D90690E0E90690E0F90620F439
:100CA00091E090938600A5C00F2EF5E1CF2EFEEFC8
:100CB000DF2EFFEFEF2EFFEFFF2EF02DC00ED11E27
:100CC000E21EF31E9AEEC91691E0D90690E0E906FD
:100CD00090E0F90620F492E090938600A1C00F2ED8
:100CE000FAE0CF2EFFEFDF2EFFEFEF2EFFEFFF2E0C
:100CF000F02DC00ED11EE21EF31E95EFC916D104D1
:100D0000E104F10420F493E09093860090C00F2E4C
:100D1000F5E8CF2EFFEFDF2EFFEFEF2EFFEFFF2ED8
:100D2000F02DC00ED11EE21EF31E9BE7C916D104A2
:100D3000E104F10420F494E090938600A5C00F2E06
:100D4000F0EECF2EFFEFDF2EFFEFEF2EFFEFFF2EA7
:100D5000F02DC00ED11EE21EF31E9BE5C916D10474
:100D6000E104F10420F495E09093860077C00150EF
:100D70001040204030400F3111052105310520F48D
:100D800096E09093860086C090918600933009F497
:100D90004EC0943030F4913061F1923008F040C090
:100DA0000AC0953009F45AC0953008F46DC09630E9
:100DB00009F08DC06FC0813061F0813030F0823039
:100DC00071F0833009F083C010C083B7816083BFA6
:100DD00088C08EB59FB581609FBD8EBD98C08EB511
:100DE0009FB581609FBD8EBDADC085B5816085BD5D
:100DF000C4C0833018F4813048F404C0833009F053
:100E000066C00AC083B7826083BF6BC02EB53FB592
:100E100022603FBD2EBD5BC085B5826085BDADC083
:100E2000833009F054C085B5836085BDA6C083308A
:100E300018F4813048F404C0833009F048C00AC077
:100E400083B7836083BF4DC02EB53FB523603FBDE0
:100E50002EBD3DC085B5846085BD8FC0833018F43C
:100E6000813040F403C0833091F50AC083B78360BA
:100E700083BF37C02EB53FB523603FBD2EBD27C011
:100E800085B5846085BD79C0833009F585B58560F9
:100E900085BD73C0813059F0813028F0823069F00F
:100EA0008330A9F410C083B7856083BF1AC08EB5A4
:100EB0009FB581609FBD8EBD2AC08EB59FB58560F0
:100EC0009FBD8EBD3FC085B5876085BD56C0813052
:100ED000F1F0813030F08230A9F1833009F063C045
:100EE0004CC070E080E090E00E94950820E030E087
:100EF00048EC52E40E94010820E030E04FE753E460
:100F00000E9423090E9469086CBF80E04DC070E018
:100F100080E090E00E94950820E030E048EC52E448
:100F20000E94010820E030E04FE753E40E942309CB
:100F30000E946908DC01CB019BBD8ABD99BD88BDBB
:100F400080E032C070E080E090E00E94950820E0F0
:100F500030E048EC52E40E94010820E030E04FE726
:100F600053E40E9423090E946908DC01CB019BBD68
:100F70008ABD99BD88BD80E017C070E080E090E038
:100F80000E94950820E030E048EC52E40E940108FD
:100F900020E030E04FE753E40E9423090E946908F3
:100FA00063BD80E001C081E091E0909387001F91D4
:100FB0000F91FF90EF90DF90CF9008959091870070
:100FC000913021F40E94170680E0089581E0089591
:100FD000833018F4813048F403C0833081F40AC0B0
:100FE00083B7887F83BF80E0089583B7887F83BFFE
:100FF00080E0089585B5887F85BD80E0089581E013
:1010000008950CD0E6C0DED040F0D5D030F021F409
:101010005F3F19F0C7C0511110C1CAC0EBD098F39F
:101020009923C9F35523B1F3951B550BBB27AA2769
:1010300062177307840738F09F5F5F4F220F331FDB
:10104000441FAA1FA9F333D00E2E3AF0E0E830D0A7
:1010500091505040E695001CCAF729D0FE2F27D0AA
:10106000660F771F881FBB1F261737074807AB0778
:10107000B0E809F0BB0B802DBF01FF2793585F4FED
:101080002AF09E3F510568F08DC0D7C05F3FECF35A
:10109000983EDCF3869577956795B795F7959F5FB2
:1010A000C9F7880F911D9695879597F90895E1E006
:1010B000660F771F881FBB1F621773078407BA0765
:1010C00020F0621B730B840BBA0BEE1F88F7E095C0
:1010D000089598D088F09F5790F0B92F9927B7516D
:1010E000A0F0D1F0660F771F881F991F1AF0BA95EC
:1010F000C9F712C0B13081F09FD0B1E008959CC013
:10110000672F782F8827B85F39F0B93FCCF38695E1
:1011100077956795B395D9F73EF49095809570953E
:1011200061957F4F8F4F9F4F0895E89409C097FBBB
:101130003EF490958095709561957F4F8F4F9F4FAE
:101140009923A9F0F92F96E9BB279395F6958795F2
:1011500077956795B795F111F8CFFAF4BB0F11F4B5
:1011600060FF1BC06F5F7F4F8F4F9F4F16C088235C
:1011700011F096E911C0772321F09EE8872F762F92
:1011800005C0662371F096E8862F70E060E02AF0D3
:101190009A95660F771F881FDAF7880F96958795BF
:1011A00097F9089597F99F6780E870E060E00895E7
:1011B0009FEF80EC089500240A941616170618066F
:1011C0000906089500240A9412161306140605064B
:1011D0000895092E0394000C11F4882352F0BB0FDC
:1011E00040F4BF2B11F460FF04C06F5F7F4F8F4F3F
:1011F0009F4F089557FD9058440F551F59F05F3F7A
:1012000071F04795880F97FB991F61F09F3F79F028
:1012100087950895121613061406551FF2CF4695AA
:10122000F1DF08C0161617061806991FF1CF86952C
:101230007105610508940895E894BB276627772710
:10124000CB0197F908950BD0C4CFB5DF28F0BADFF2
:1012500018F0952309F0A6CFABCF1124EECFCADF4B
:10126000A0F3959FD1F3950F50E0551F629FF001B9
:10127000729FBB27F00DB11D639FAA27F00DB11D12
:10128000AA1F649F6627B00DA11D661F829F22279B
:10129000B00DA11D621F739FB00DA11D621F839F22
:1012A000A00D611D221F749F3327A00D611D231FF8
:1012B000849F600D211D822F762F6A2F11249F5746
:1012C00050408AF0E1F088234AF0EE0FFF1FBB1F69
:1012D000661F771F881F91505040A9F79E3F510508
:1012E00070F060CFAACF5F3FECF3983EDCF38695B9
:1012F00077956795B795F795E7959F5FC1F7FE2BB3
:10130000880F911D9695879597F90895F894FFCFCA
:10131000031CFF02F0FF01F0FF00F0FF03FCFF03DE
:0E132000E0FF031CFF030600060206010600A4
:00000001FF
