S0150000666163746F72795F74657374312E73726563C7
S11300000C942A000C947F010C94A6010C94CD014D
S11300100C94F4010C941B020C9442020C9469029B
S11300200C9490020C94B7020C94DE020C94050319
S11300300C942C030C9453030C947A030C94A10396
S11300400C94C8030C94EF030C9416040C943D0414
S11300500C94640411241FBECFE5D8E0DEBFCDBFED
S113006010E0A0E6B0E0ECE6FCE102C005900D92E1
S1130070A639B107D9F711E0A6E9B0E001C01D9295
S1130080A536B107E1F70E9441010C94340E0C949B
S11300900000FC018281882321F08F3F09F04AC0CF
S11300A027C08081813079F0813030F0823091F046
S11300B0833009F041C015C09AB3818180958923AA
S11300C08ABB80E0089597B381818095892387BB9B
S11300D080E0089594B381818095892384BB80E076
S11300E0089591B381818095892381BB80E008952F
S11300F08081813069F0813028F0823079F083305A
S1130100E9F412C09AB38181892B8ABB80E00895F7
S113011097B38181892B87BB80E0089594B3818153
S1130120892B84BB80E0089591B38181892B81BBA5
S113013080E0089581E0089580E0089580E00895C6
S1130140442321F04F3F09F03FC021C0813069F0C2
S1130150813028F0823079F08330C1F512C08BB33E
S1130160609568236BBB80E0089588B3609568232D
S113017068BB80E0089585B36095682365BB80E023
S1130180089582B36095682362BB80E0089581304E
S113019061F0813028F0823069F08330C9F40FC0F7
S11301A08BB3682B6BBB80E0089588B3682B68BB66
S11301B080E0089585B3682B65BB80E0089582B321
S11301C0682B62BB80E0089581E0089580E0089583
S11301D080E00895FA01813059F0813028F08230AE
S11301E059F0833081F40CC089B3682360830BC059
S11301F086B36823608307C083B36823608303C026
S113020080B3682360838081882311F081E0808338
S11302100895813061F0813028F0823069F08330B4
S1130220A9F40FC08BB368276BBB80E0089588B333
S1130230682768BB80E0089585B3682765BB80E0C4
S1130240089582B3682762BB80E0089581E0089531
S113025081E890E00E947E088AE699E061E040E04F
S113026021E030E00E94D1088EE690E00E9449002F
S113027017BA83E00E948B0483E061E00E94BA0411
S113028008950E9428010E94EE0883E06AE00E941B
S1130290630583E062E30E94630583E064E60E94F1
S11302A0630583E060E00E946305EDCF8FB780684B
S11302B08FBF0895BA98C29A8BB780628BBF84B7F8
S11302C0806484BF08958B98939A8BB780688BBFA2
S11302D085B7846085BF85B7877F85BF08958A9871
S11302E0929A8BB780648BBF85B7816085BF85B7D1
S11302F08D7F85BF08958FB78F778FBF08951F9225
S11303000F920FB60F9211242F933F934F935F9345
S11303106F937F938F939F93AF93BF93EF93FF93C9
S1130320E0912901F0912A010995FF91EF91BF9184
S1130330AF919F918F917F916F915F914F913F9179
S11303402F910F900FBE0F901F9018951F920F9230
S11303500FB60F9211242F933F934F935F936F9394
S11303607F938F939F93AF93BF93EF93FF93E0910A
S11303703101F09132010995FF91EF91BF91AF9155
S11303809F918F917F916F915F914F913F912F91A9
S11303900F900FBE0F901F9018951F920F920FB6DB
S11303A00F9211242F933F934F935F936F937F93F7
S11303B08F939F93AF93BF93EF93FF93E0912101AA
S11303C0F09122010995FF91EF91BF91AF919F9117
S11303D08F917F916F915F914F913F912F910F90EA
S11303E00FBE0F901F9018951F920F920FB60F9289
S11303F011242F933F934F935F936F937F938F9326
S11304009F93AF93BF93EF93FF93E0913701F091E4
S113041038010995FF91EF91BF91AF919F918F9111
S11304207F916F915F914F913F912F910F900FBEEC
S11304300F901F9018951F920F920FB60F921124D0
S11304402F933F934F935F936F937F938F939F93D8
S1130450AF93BF93EF93FF93E0911701F0911801CD
S11304600995FF91EF91BF91AF919F918F917F91EA
S11304706F915F914F913F912F910F900FBE0F900D
S11304801F9018951F920F920FB60F9211242F935D
S11304903F934F935F936F937F938F939F93AF9308
S11304A0BF93EF93FF93E0913301F09134010995E9
S11304B0FF91EF91BF91AF919F918F917F916F9138
S11304C05F914F913F912F910F900FBE0F901F900E
S11304D018951F920F920FB60F9211242F933F93EA
S11304E04F935F936F937F938F939F93AF93BF9338
S11304F0EF93FF93E0911D01F0911E010995FF9187
S1130500EF91BF91AF919F918F917F916F915F9187
S11305104F913F912F910F900FBE0F901F90189500
S11305201F920F920FB60F9211242F933F934F9364
S11305305F936F937F938F939F93AF93BF93EF9347
S1130540FF93E0911B01F0911C010995FF91EF913C
S1130550BF91AF919F918F917F916F915F914F91D7
S11305603F912F910F900FBE0F901F9018951F92DF
S11305700F920FB60F9211242F933F934F935F93D3
S11305806F937F938F939F93AF93BF93EF93FF9357
S1130590E0913501F09136010995FF91EF91BF91FA
S11305A0AF919F918F917F916F915F914F913F9107
S11305B02F910F900FBE0F901F9018951F920F92BE
S11305C00FB60F9211242F933F934F935F936F9322
S11305D07F938F939F93AF93BF93EF93FF93E09198
S11305E02D01F0912E010995FF91EF91BF91AF91EB
S11305F09F918F917F916F915F914F913F912F9137
S11306000F900FBE0F901F9018951F920F920FB668
S11306100F9211242F933F934F935F936F937F9384
S11306208F939F93AF93BF93EF93FF93E0916C00ED
S1130630F0916D000995FF91EF91BF91AF919F915A
S11306408F917F916F915F914F913F912F910F9077
S11306500FBE0F901F9018951F920F920FB60F9216
S113066011242F933F934F935F936F937F938F93B3
S11306709F93AF93BF93EF93FF93E0911F01F0918A
S113068020010995FF91EF91BF91AF919F918F91B7
S11306907F916F915F914F913F912F910F900FBE7A
S11306A00F901F9018951F920F920FB60F9211245E
S11306B02F933F934F935F936F937F938F939F9366
S11306C0AF93BF93EF93FF93E0911501F09116015F
S11306D00995FF91EF91BF91AF919F918F917F9178
S11306E06F915F914F913F912F910F900FBE0F909B
S11306F01F9018951F920F920FB60F9211242F93EB
S11307003F934F935F936F937F938F939F93AF9395
S1130710BF93EF93FF93E0912F01F091300109957E
S1130720FF91EF91BF91AF919F918F917F916F91C5
S11307305F914F913F912F910F900FBE0F901F909B
S113074018951F920F920FB60F9211242F933F9377
S11307504F935F936F937F938F939F93AF93BF93C5
S1130760EF93FF93E0912B01F0912C010995FF91F8
S1130770EF91BF91AF919F918F917F916F915F9115
S11307804F913F912F910F900FBE0F901F9018958E
S11307901F920F920FB60F9211242F933F934F93F2
S11307A05F936F937F938F939F93AF93BF93EF93D5
S11307B0FF93E0912501F09126010995FF91EF91B6
S11307C0BF91AF919F918F917F916F915F914F9165
S11307D03F912F910F900FBE0F901F9018951F926D
S11307E00F920FB60F9211242F933F934F935F9361
S11307F06F937F938F939F93AF93BF93EF93FF93E5
S1130800E0912701F09128010995FF91EF91BF91A3
S1130810AF919F918F917F916F915F914F913F9194
S11308202F910F900FBE0F901F9018951F920F924B
S11308300FB60F9211242F933F934F935F936F93AF
S11308407F938F939F93AF93BF93EF93FF93E09125
S11308502301F09124010995FF91EF91BF91AF918C
S11308609F918F917F916F915F914F913F912F91C4
S11308700F900FBE0F901F9018951F920F920FB6F6
S11308800F9211242F933F934F935F936F937F9312
S11308908F939F93AF93BF93EF93FF93E0911301D3
S11308A0F09114010995FF91EF91BF91AF919F9140
S11308B08F917F916F915F914F913F912F910F9005
S11308C00FBE0F901F9018951F920F920FB60F92A4
S11308D011242F933F934F935F936F937F938F9341
S11308E09F93AF93BF93EF93FF93E0911901F0911E
S11308F01A010995FF91EF91BF91AF919F918F914B
S11309007F916F915F914F913F912F910F900FBE07
S11309100F901F901895823079F08330C9F08130A0
S113092039F5809396008FE790E00E946A0684E789
S113093090E00E944900089582E0809396008DE73C
S113094090E00E946A0681E790E00E9449000895C1
S113095083E0809396008FE790E00E946A068DE71B
S113096090E00E946A068EE690E00E944900089595
S113097081E00895823079F1833009F455C08130E3
S113098009F099C0613031F06130D0F0623009F083
S113099094C00BC083E064E04FEF0E94A00083E0AA
S11309A068E040E00E94A000089583E068E04FEF13
S11309B00E94A00083E064E040E00E94A00008954B
S11309C083E064E040E00E94A00083E068E040E04F
S11309D00E94A0000895613031F06130D0F062309F
S11309E009F06DC00BC083E061E04FEF0E94A000EE
S11309F083E062E040E00E94A000089583E062E0AA
S1130A004FEF0E94A00083E061E040E00E94A0005C
S1130A10089583E062E040E00E94A00083E061E08A
S1130A2040E00E94A0000895613031F0613070F11F
S1130A30623009F046C015C083E064E04FEF0E94C5
S1130A40A00083E068E040E00E94A00083E062E050
S1130A5040E00E94A00083E061E04FEF0E94A0000C
S1130A60089583E064E040E00E94A00083E068E031
S1130A704FEF0E94A00083E062E04FEF0E94A000CD
S1130A8083E061E040E00E94A000089583E064E018
S1130A9040E00E94A00083E062E040E00E94A000E9
S1130AA083E068E040E00E94A00083E061E040E071
S1130AB00E94A000089580E0089580E0089580E0F9
S1130AC0089581E00895823069F08330A9F081307F
S1130AD0F1F4809397002CE83AE740E050E00E945C
S1130AE09406089582E0809397002CE83AE740E06A
S1130AF050E00E949406089583E08093970082E07A
S1130B002CE83AE740E050E00E949406089581E022
S1130B100895823079F08330C1F0813011F58091ED
S1130B209600813001F52EE130E040E050E00E9473
S1130B3094060895809196008230B9F42EE130E055
S1130B4040E050E00E94940608958091960083301E
S1130B5071F482E02EE130E040E050E00E9494061F
S1130B60089581E0089581E0089581E0089581E089
S1130B700895813019F0823049F404C081E00E9464
S1130B806508089582E00E946508089581E008954B
S1130B9090919600981721F481E0FB0180830895D9
S1130BA0FB01108208958130C1F0813018F0823049
S1130BB0D1F526C081E061E048E950E00E94EA00F6
S1130BC080919800813081F590919B009F5F909374
S1130BD09B009B3070F580E0089581E062E049E974
S1130BE050E00E94EA00809199008130F9F49091DC
S1130BF09B009F5F90939B009333D8F480E008950B
S1130C0080E064E04AE950E00E94EA0080919A00A2
S1130C10813071F490919C009F5F90939C0095317A
S1130C2040F480E00895089580E0089580E00895F8
S1130C3080E0089540919E0050E041565F4F81E06E
S1130C4061E00E94EA00882381F080917700882384
S1130C5041F4809103018F5F8093030181E08093CD
S1130C607700109204011092780040919E0050E0A9
S1130C7041565F4F81E061E00E94EA008823E9F475
S1130C8080910301843118F4109205010DC0982F4E
S1130C9095519D3120F481E08093050105C0833393
S1130CA018F083E08093050110927700809104018D
S1130CB08F5F809304011092030180919E0085361A
S1130CC020F48F5F80939E0002C010929E0080915A
S1130CD005010895FC018081813061F0813028F0A4
S1130CE0823081F08330D9F415C083B7886683BF1E
S1130CF080E016C08EB59FB58062916A9FBD8EBD9F
S1130D0080E00EC08EB59FB58062916A9FBD8EBD96
S1130D1080E006C085B5886685BD80E001C081E0BD
S1130D209181909306010895CF92DF92EF92FF9202
S1130D300F931F9389019A010F2EFEEACF2EF0EF35
S1130D40DF2EFFEFEF2EFFEFFF2EF02DC00ED11E92
S1130D50E21EF31E9BE3C9169BE6D90690E0E90662
S1130D6090E0F90618F410920601A2C00F2EFBE2DF
S1130D70CF2EFCEFDF2EFFEFEF2EFFEFFF2EF02D37
S1130D80C00ED11EE21EF31E9DE7C9169BE0D906D4
S1130D9090E0E90690E0F90620F491E090930601D2
S1130DA0A5C00F2EF5E1CF2EFEEFDF2EFFEFEF2EC5
S1130DB0FFEFFF2EF02DC00ED11EE21EF31E9AEEA1
S1130DC0C91691E0D90690E0E90690E0F90620F40E
S1130DD092E090930601A1C00F2EFAE0CF2EFFEF10
S1130DE0DF2EFFEFEF2EFFEFFF2EF02DC00ED11EF2
S1130DF0E21EF31E95EFC916D104E104F10420F4B8
S1130E0093E09093060190C00F2EF5E8CF2EFFEFEC
S1130E10DF2EFFEFEF2EFFEFFF2EF02DC00ED11EC1
S1130E20E21EF31E9BE7C916D104E104F10420F489
S1130E3094E090930601A5C00F2EF0EECF2EFFEFA5
S1130E40DF2EFFEFEF2EFFEFFF2EF02DC00ED11E91
S1130E50E21EF31E9BE5C916D104E104F10420F45B
S1130E6095E09093060177C0015010402040304037
S1130E700F3111052105310520F496E09093060108
S1130E8086C090910601933009F44EC0943030F43A
S1130E90913061F1923008F040C00AC0953009F4F5
S1130EA05AC0953008F46DC0963009F08DC06FC0FB
S1130EB0813061F0813030F0823071F0833009F09C
S1130EC083C010C083B7816083BF88C08EB59FB5CF
S1130ED081609FBD8EBD98C08EB59FB581609FBD5A
S1130EE08EBDADC085B5816085BDC4C0833018F4A6
S1130EF0813048F404C0833009F066C00AC083B767
S1130F00826083BF6BC02EB53FB522603FBD2EBD4E
S1130F105BC085B5826085BDADC0833009F054C027
S1130F2085B5836085BDA6C0833018F4813048F44C
S1130F3004C0833009F048C00AC083B7836083BF0C
S1130F404DC02EB53FB523603FBD2EBD3DC085B518
S1130F50846085BD8FC0833018F4813040F403C0B1
S1130F60833091F50AC083B7836083BF37C02EB541
S1130F703FB523603FBD2EBD27C085B5846085BDC8
S1130F8079C0833009F585B5856085BD73C081302E
S1130F9059F0813028F0823069F08330A9F410C010
S1130FA083B7856083BF1AC08EB59FB581609FBD2E
S1130FB08EBD2AC08EB59FB585609FBD8EBD3FC0D6
S1130FC085B5876085BD56C08130F1F0813030F041
S1130FD08230A9F1833009F063C04CC070E080E036
S1130FE090E00E94430D20E030E048EC52E40E947F
S1130FF0AF0C20E030E04FE753E40E94D10D0E9493
S1131000170D6CBF80E04DC070E080E090E00E945E
S1131010430D20E030E048EC52E40E94AF0C20E0A5
S113102030E04FE753E40E94D10D0E94170DDC011C
S1131030CB019BBD8ABD99BD88BD80E032C070E004
S113104080E090E00E94430D20E030E048EC52E460
S11310500E94AF0C20E030E04FE753E40E94D10D32
S11310600E94170DDC01CB019BBD8ABD99BD88BDD3
S113107080E017C070E080E090E00E94430D20E023
S113108030E048EC52E40E94AF0C20E030E04FE73F
S113109053E40E94D10D0E94170D63BD80E001C08E
S11310A081E091E0909307011F910F91FF90EF90E1
S11310B0DF90CF90089590910701913021F40E9420
S11310C0940680E0089581E00895833018F4813017
S11310D048F403C0833081F40AC083B7887F83BF98
S11310E080E0089583B7887F83BF80E0089585B545
S11310F0887F85BD80E0089581E008950F931F9354
S1131100CF93DF93EC01098180910A018F5F809373
S11311100A01209711F010E001C01AE2002319F02F
S1131120023079F407C00E94560189E890E00E94D9
S1131130300B08C00E9456018FE890E00E94300BEB
S113114001C01F5F8881813099F4002319F00230B7
S113115069F406C080E06AEF70E00E94960909C055
S113116082E06EE070E00E94960903C01F5F01C038
S11311701F5F812FDF91CF911F910F91089580916F
S11311800A01813041F483E890E00E94300B109210
S11311900A0180E00895823010F086E0089581E02D
S11311A0089550910A01513099F4E42FF0E0EE0FC4
S11311B0FF1FEE0FFF1FEE0FFF1FE35CFE4F918337
S11311C0808365833483238381E0828380E0089570
S11311D0523010F086E0089584E00895CF93DF93B1
S11311E080910801813009F065C0109208011092C5
S11311F0090120E0CDE3D1E030E0F901EE0FFF1F5B
S1131200EE0FFF1FEE0FFF1FEC0FFD1F82818823DF
S113121009F448C0F901EE0FFF1FEE0FFF1FEE0F98
S1131220FF1FEC0FFD1F86819781AC014F5F5F4F5D
S1131230578346838381948148175907D1F4F90170
S1131240EE0FFF1FEE0FFF1FEE0FFF1FEC0FFD1F32
S11312500190F081E02D0995E0910901F0E0EE0F95
S1131260FF1FEE0FFF1FEE0FFF1FEC0FFD1F178276
S113127016828091090190E0FC01EE0FFF1FEE0F32
S1131280FF1FEE0FFF1FEC0FFD1F2581222351F4DA
S1131290FC01EE0FFF1FEE0FFF1FEE0FFF1FEC0F01
S11312A0FD1F1282209109012F5F20930901243030
S11312B008F4A2CF80E0DF91CF910895E82FF0E009
S11312C0EE0FFF1FEE0FFF1FEE0FFF1FE35CFE4F3D
S11312D01282089580E00E94D30520910C01309180
S11312E00D01280F311D30930D0120930C01089539
S11312F081E0809308010895813051F0813018F025
S1131300823091F40CC083B7887F83BF80E0089556
S11313108EB59FB5887F9FBD8EBD80E0089585B54D
S1131320887F85BD80E0089586E30895CF93DF9399
S1131330EB01813009F47CC0813020F0823009F067
S113134069C1ECC080911001813009F06CC08091BA
S11313500F01843091F1853030F4813051F08230C6
S113136009F05AC118C08630D1F1873009F054C150
S113137048C06F3F710508F051C180910E01813062
S113138031F480E00E947C0983B7816083BFC095FB
S1131390C2BF80E062C16F3F710508F041C1809116
S11313A00E01813031F480E00E947C0983B78260B1
S11313B083BFC095C2BF80E050C16F3F710508F084
S11313C031C180910E01813031F480E00E947C09AA
S11313D083B7836083BFC095C2BF80E03EC16F3FC7
S11313E0710508F021C180910E01813031F480E053
S11313F00E947C0983B7846083BFC095C2BF80E02C
S11314002CC16F3F710508F011C180910E0181302C
S113141031F480E00E947C0983B7856083BFC09566
S1131420C2BF80E01AC1823008F402C184E215C14F
S113143080911101813009F06CC080910F018430DA
S113144091F1853030F4813051F0823009F0F2C0EE
S113145018C08630D1F1873009F0ECC048C08091C3
S11314600E01813039F40E947C098EB59FB58160EC
S11314709FBD8EBDD095C195DF4FDDBDCCBD80E055
S1131480ECC080910E01813039F40E947C098EB544
S11314909FB582609FBD8EBDD095C195DF4FDDBDE8
S11314A0CCBD80E0DAC080910E01813039F40E9415
S11314B07C098EB59FB583609FBD8EBDD095C195C7
S11314C0DF4FDDBDCCBD80E0C8C080910E0181300E
S11314D039F40E947C098EB59FB584609FBD8EBD92
S11314E0D095C195DF4FDDBDCCBD80E0B6C0809105
S11314F00E01813039F40E947C098EB59FB5856058
S11315009FBD8EBDD095C195DF4FDDBDCCBD80E0C4
S1131510A4C0823008F490C084E29FC0809112017C
S1131520813009F073C080910F018430C9F1853096
S113153040F48230E9F0833048F5813009F07EC010
S113154009C0863009F448C08630C0F1873009F0FC
S113155075C04FC06F3F710508F072C082E00E94F1
S11315607C0985B5816085BDC095C4BD80E075C02A
S11315706F3F710508F066C082E00E947C0985B562
S1131580826085BDC095C4BD80E067C082E00E94D2
S11315907C0985B5836085BDC095C4BD80E05DC010
S11315A06F3F710508F050C082E00E947C0985B548
S11315B0846085BDC095C4BD80E04FC06F3F710598
S11315C008F044C082E00E947C0985B5856085BD31
S11315D0C095C4BD80E041C06F3F7105C8F582E08D
S11315E00E947C0985B5866085BDC095C4BD80E038
S11315F034C06F3F710570F582E00E947C0985B5A7
S1131600876085BDC095C4BD80E027C0823020F1CD
S113161084E223C086E321C080E01FC080E01DC0B7
S113162080E01BC080E019C080E017C080E015C0D6
S113163082E213C080E011C082E20FC080E00DC0DE
S113164080E00BC080E009C080E007C080E005C0F6
S113165080E003C080E001C082E2DF91CF91089571
S11316601F93CF93DF93EC01009709F413C1998181
S1131670992321F481E080930E0102C010920E019F
S11316808B8180930F018881813009F45BC08130A4
S113169020F0823009F000C1AFC0809110018F5F4B
S11316A08093100183B783BF89818130C9F0813071
S11316B020F0823009F0F2C02CC08A81882321F006
S11316C0813009F0EDC005C089B78C7F89BF10E077
S11316D0FAC00E94560189B7816089BF10E0F3C047
S11316E080E00E947C0983B78D6083BF8A81882350
S11316F021F0813009F0D6C005C089B78C7F89BF3D
S113170010E0E1C00E94560189B7816089BF10E0F2
S1131710DAC080E00E947C0983B78C6083BF8A8131
S1131720882321F0813009F0BFC005C089B78C7FC0
S113173089BF10E0C8C00E94560189B7816089BF83
S113174010E0C1C0809111018F5F8093110191302D
S1131750E9F0913020F0923009F0A8C032C08EB583
S11317609FB59FBD8EBD8A81882321F0813009F009
S11317709FC005C089B7837C89BF10E0A4C00E94C4
S1131780560189B7846089BF10E09DC081E00E9442
S11317907C098EB59FB587609FBD8EBD8A818823E5
S11317A021F0813009F086C005C089B7837C89BFE8
S11317B010E089C00E94560189B7846089BF10E097
S11317C082C081E00E947C098EB59FB586609FBD72
S11317D08EBD8A81882321F0813009F06DC005C057
S11317E089B7837C89BF10E06EC00E94560189B717
S11317F0846089BF10E067C0809112018F5F80937D
S1131800120185B585BD89818130C9F0813020F010
S1131810823009F053C028C08A81882321F08130A6
S113182009F04EC005C089B78F7389BF10E04BC063
S11318300E94560189B7806C89BF10E044C082B50C
S1131840886082BD8A81882319F0813079F405C0CB
S113185089B78F7389BF10E00AC00E94560189B707
S1131860806C89BF10E003C010E001C010E382B5B2
S1131870886082BD8A81882319F0813019F504C0FB
S113188089B78F7389BF1FC00E94560189B7806CC6
S113189089BF19C010E217C010E015C010E013C0D2
S11318A010E011C010E00FC010E00DC014E30BC035
S11318B010E309C010E307C010E305C016E303C03A
S11318C010E301C010E3812FDF91CF911F910895A0
S11318D061157105F9F0813059F0813018F08230CA
S11318E0D9F40EC088B78170FB01808380E008952D
S11318F088B7869586958170FB01808380E0089582
S113190088B782958695869583708170FB01808364
S113191080E0089580E2089586E3089561157105D5
S1131920D1F0813059F0813018F08230B1F40DC01B
S113193082B7FB018083118280E008958CB59DB548
S1131940FB019183808380E0089584B5FB0180834B
S1131950118280E0089580E2089586E308950CD012
S1131960E6C0DED040F0D5D030F021F45F3F19F06E
S1131970C7C0511110C1CAC0EBD098F39923C9F361
S11319805523B1F3951B550BBB27AA276217730781
S1131990840738F09F5F5F4F220F331F441FAA1F35
S11319A0A9F333D00E2E3AF0E0E830D091505040F5
S11319B0E695001CCAF729D0FE2F27D0660F771FA3
S11319C0881FBB1F261737074807AB07B0E809F085
S11319D0BB0B802DBF01FF2793585F4F2AF09E3F1A
S11319E0510568F08DC0D7C05F3FECF3983EDCF33F
S11319F0869577956795B795F7959F5FC9F7880F93
S1131A00911D9695879597F90895E1E0660F771FE4
S1131A10881FBB1F621773078407BA0720F0621B75
S1131A20730B840BBA0BEE1F88F7E095089598D0DA
S1131A3088F09F5790F0B92F9927B751A0F0D1F0B3
S1131A40660F771F881F991F1AF0BA95C9F712C03D
S1131A50B13081F09FD0B1E008959CC0672F782FFA
S1131A608827B85F39F0B93FCCF3869577956795A9
S1131A70B395D9F73EF490958095709561957F4F15
S1131A808F4F9F4F0895E89409C097FB3EF49095BB
S1131A908095709561957F4F8F4F9F4F9923A9F043
S1131AA0F92F96E9BB279395F695879577956795D2
S1131AB0B795F111F8CFFAF4BB0F11F460FF1BC016
S1131AC06F5F7F4F8F4F9F4F16C0882311F096E9A9
S1131AD011C0772321F09EE8872F762F05C0662357
S1131AE071F096E8862F70E060E02AF09A95660F10
S1131AF0771F881FDAF7880F9695879597F90895C9
S1131B0097F99F6780E870E060E008959FEF80ECAC
S1131B10089500240A94161617061806090608954F
S1131B2000240A9412161306140605060895092EB5
S1131B300394000C11F4882352F0BB0F40F4BF2B24
S1131B4011F460FF04C06F5F7F4F8F4F9F4F089564
S1131B5057FD9058440F551F59F05F3F71F047955A
S1131B60880F97FB991F61F09F3F79F0879508953F
S1131B70121613061406551FF2CF4695F1DF08C05E
S1131B80161617061806991FF1CF8695710561057B
S1131B9008940895E894BB2766277727CB0197F923
S1131BA008950BD0C4CFB5DF28F0BADF18F0952321
S1131BB009F0A6CFABCF1124EECFCADFA0F3959FD7
S1131BC0D1F3950F50E0551F629FF001729FBB2720
S1131BD0F00DB11D639FAA27F00DB11DAA1F649FCC
S1131BE06627B00DA11D661F829F2227B00DA11D7F
S1131BF0621F739FB00DA11D621F839FA00D611D05
S1131C00221F749F3327A00D611D231F849F600D25
S1131C10211D822F762F6A2F11249F5750408AF05E
S1131C20E1F088234AF0EE0FFF1FBB1F661F771FEA
S1131C30881F91505040A9F79E3F510570F060CF26
S1131C40AACF5F3FECF3983EDCF3869577956795D2
S1131C50B795F795E7959F5FC1F7FE2B880F911D08
S10F1C609695879597F90895F894FFCFA6
S1131C6C031CFF02F0FF01F0FF00F0FF7809033FB3
S1131C7CFF03E0FF031CFF0101030600060206013B
S1131C8C0601000000010000000000010400000235
S1091C9C00010700000036
S903015D9E
